:100000000C9434000C9449000C9449000C94490061
:100010000C9449000C9449000C9449000C9449003C
:100020000C9449000C9449000C9449000C9449002C
:100030000C9449000C9449000C9449000C9449001C
:100040000C9449000C9449000C9449000C9449000C
:100050000C9449000C9449000C9449000C944900FC
:100060000C9449000C94490011241FBECFEFD8E036
:10007000DEBFCDBF12E0A0E0B1E0E0E5F9E002C0F4
:1000800005900D92A035B107D9F70E94F0010C94AC
:10009000A6040C9400000E94CB0263E083E00E945F
:1000A0002C0382E091E00E94E4022FEF87EA91E6C0
:1000B000215080409040E1F700C0000081E0809333
:1000C00001010E94CB022FEF87EA91E62150804088
:1000D0009040E1F700C000000895AF92BF92CF9228
:1000E000DF92EF92FF920F931F93CF93DF93B82E7F
:1000F0006A01A22E982F990F980F660F660F660F50
:10010000892F880F96FD80E0603408F060E00E943F
:10011000F302F60101900020E9F731971E2F1C1918
:10012000163108F015E1112381F0E6018FEF810F00
:10013000E82EF12C8FEFE81AF80AEC0CFD1C8991DF
:100140000E94DB02CE15DF05D1F7AA2049F0C5E1F8
:10015000CB19C11B29F0802F0E94DB02C150D9F7B7
:10016000DF91CF911F910F91FF90EF90DF90CF9093
:10017000BF90AF900895FF920F931F93CF93DF939B
:10018000E0910101F0E0EE0FFF1FEE0FFF1FEE0FF9
:10019000FF1FED5EFE4F1281183070F4DEEFD10FBD
:1001A00080910001882321F00E94CB02109200016F
:1001B0002091010180E006C081E080930001D6E03B
:1001C00018E0F6CFE82FF0E0EE0FFF1FEE0FFF1F55
:1001D000EE0FFF1FED5EFE4F9281890F281790F7FB
:1001E000422F50E0FA01EE0FFF1FEE0FFF1FEE0F40
:1001F000FF1FED5EFE4F9281F82EF91AEF2DF0E011
:10020000BF016D0F711D461757070CF457C0CFEF94
:10021000C80F8C2F90E00197841795070CF48BC0C2
:10022000C22FCD1B1150F12EFC0EEE0FFF1FEE0F53
:10023000FF1FEE0FFF1FED5EFE4F4081518100E278
:1002400021E060E080E00E946D00CF5FFC1670F15D
:1002500012E06FEF610F809101018C1312C0EC2F3F
:10026000F0E0EE0FFF1FEE0FFF1FEE0FFF1FED5E22
:10027000FE4F408151810CE321E080E00E946D003F
:1002800011C0EC2FF0E0EE0FFF1FEE0FFF1FEE0F7F
:10029000FF1FED5EFE4F4081518100E221E080E0D2
:1002A0000E946D00CF5F1F5FFC1698F66D2F80E0F7
:1002B0000E942C038EE30E94DB028CC011501F0DA4
:1002C0001F1578F1CF2DD1E06FEF6D0F80910101F7
:1002D0008C1312C0EC2FF0E0EE0FFF1FEE0FFF1F8C
:1002E000EE0FFF1FED5EFE4F408151810CE321E0D8
:1002F00080E00E946D0011C0EC2FF0E0EE0FFF1FB8
:10030000EE0FFF1FEE0FFF1FED5EFE4F408151818C
:1003100000E221E080E00E946D00CF5FDF5F1C17EC
:1003200098F6609101016F1980E00E942C038EE322
:100330000E94DB024FC0C2134DC0EE0FFF1FEE0F35
:10034000FF1FEE0FFF1FED5EFE4F4081518100E267
:1003500021E060E080E00E946D00DC2FD11BDE5FB9
:10036000CD1780F16894FF24F1F86FEF6F0D809145
:1003700001018D1312C0ED2FF0E0EE0FFF1FEE0F05
:10038000FF1FEE0FFF1FED5EFE4F408151810CE31A
:1003900021E080E00E946D0011C0ED2FF0E0EE0F33
:1003A000FF1FEE0FFF1FEE0FFF1FED5EFE4F4081A0
:1003B000518100E221E080E00E946D00DF5FF39454
:1003C000CD1798F66FEF610F80E00E942C038EE34B
:1003D0000E94DB02DF91CF911F910F91FF90089552
:1003E00081E0809301013D9A45983C98449A3A985F
:1003F000429A3B98439A23E048E061E080E894E029
:100400000E9436030E94CB022FEF87EA91E621502B
:1004100080409040E1F700C000000E944B0081E066
:10042000E12CF12CC0E0D0E000E010E0912C712C28
:10043000812C6894AA24A5F8BB24B394CC24C3943B
:10044000D12C1AC0E12CF12C17C0E12CF12CC0E00A
:10045000D0E012C0E12CF12C0FC0E12CF12CC0E057
:10046000D0E00AC0E12CF12C07C0E12CF12CC0E057
:10047000D0E002C0C0E0D0E0813019F40E94BB009F
:10048000892D349931C02196C230D105DCF2011595
:100490001105D9F688B18A2588B9E0910101F0E00B
:1004A000EE0FFF1FEE0FFF1FEE0FFF1FED5EFE4F63
:1004B0000680F781E02D309709F00995E091010160
:1004C000F0E0EE0FFF1FEE0FFF1FEE0FFF1FED5EC0
:1004D000FE4F8581809301018B2DE12CF12CC0E032
:1004E000D0E00C2D1D2DC8CF329922C02196C230EC
:1004F000D1050CF4AFCF0115110509F0AECF88B1CD
:100500008A2588B9E0910101F0E0EE0FFF1FEE0FA0
:10051000FF1FEE0FFF1FED5EFE4F838180930101F1
:100520008B2DE12CF12CC0E0D0E00C2D1D2DA4CFA3
:10053000339922C02196C230D1050CF493CF011516
:10054000110509F092CF88B18A2588B9E09101019F
:10055000F0E0EE0FFF1FEE0FFF1FEE0FFF1FED5E2F
:10056000FE4F8481809301018B2DE12CF12CC0E0A2
:10057000D0E00C2D1D2D80CF2FEFE21AF20A92E071
:10058000E916F1040CF476CFE12CF12CC0E0D0E0B8
:10059000072D182D71CFCF93DF9380E00E94B90310
:1005A000C6ECD0E08CE7888380E00E94B903188213
:1005B000DF91CF910895CF93C82F81E00E94B903B6
:1005C000C093C600CF910895CF93DF93EC0188814B
:1005D000882331F021960E94DB0289918111FBCFA3
:1005E000DF91CF910895FF920F931F93CF93DF93E5
:1005F000082F162F88230CF400E0103408F010E0C8
:1006000080E00E94B903C6ECD0E00F2EFCE7FF2E7D
:10061000F02DF88280E00E94B90388E1888380E0B1
:100620000E94B903088380E00E94B903F88280E049
:100630000E94B90389E1888380E00E94B90318838E
:100640008FE19EE40197F1F700C00000DF91CF91A8
:100650001F910F91FF900895660F660F660F982FF8
:10066000990F890F880F0E94F3020895CF92DF92AD
:10067000EF92FF920F93CF93DF936C01C42FD22F91
:10068000613039F4E0ECF0E0808182608083A2E0A8
:1006900001C0A1E0B0E020E034E244EF50E00E946D
:1006A0008C0420E436E040E050E00E946A04E12C33
:1006B000F12CCA01B901A70196010E946A04CA017E
:1006C000B90161507109810991090E94C7030E9413
:1006D0000404272F33272093C5006093C400D11151
:1006E00006C0E2ECF0E080818062808307C0D130F8
:1006F00029F4E2ECF0E0808180638083013031F402
:10070000E2ECF0E08081877F808307C0023029F42B
:10071000E2ECF0E0808188608083C63031F4E2EC66
:10072000F0E080818260808310C0C73031F4E2EC59
:10073000F0E08081846080830FC0C83031F4E2EC47
:10074000F0E080818660808307C0C93029F4E2EC44
:10075000F0E080818E608083E1ECF0E08081886150
:100760008083DF91CF910F91FF90EF90DF90CF903A
:100770000895E0ECF0E0908195FFFDCF882331F003
:100780008FE19EE40197F1F700C000000895E8941E
:1007900009C097FB3EF490958095709561957F4FC9
:1007A0008F4F9F4F9923A9F0F92F96E9BB27939577
:1007B000F695879577956795B795F111F8CFFAF487
:1007C000BB0F11F460FF1BC06F5F7F4F8F4F9F4FB8
:1007D00016C0882311F096E911C0772321F09EE816
:1007E000872F762F05C0662371F096E8862F70E07C
:1007F00060E02AF09A95660F771F881FDAF7880F56
:100800009695879597F908950E944904A8F19E57F7
:10081000B0F1985160F039F1983070F5092E9927B0
:10082000660F771F881F991F0A94D1F71CC0BB273A
:10083000993F4CF4B111B1E0B62B672F782F882780
:10084000985FB1F708C0869577956795B79508F4D6
:10085000B1609395C1F7BB0F30F411F460FF03C092
:100860006F5F7F4F8F4F3EF49095809570956195A7
:100870007F4F8F4F9F4F089568940C9464040C949D
:10088000630457FD9058440F551F59F05F3F71F0B6
:100890004795880F97FB991F61F09F3F79F08795E7
:1008A0000895121613061406551FF2CF4695F1DF70
:1008B00008C0161617061806991FF1CF8695710500
:1008C000610508940895E894BB2766277727CB0134
:1008D00097F90895A1E21A2EAA1BBB1BFD010DC0BA
:1008E000AA1FBB1FEE1FFF1FA217B307E407F507E0
:1008F00020F0A21BB30BE40BF50B661F771F881FBC
:10090000991F1A9469F760957095809590959B0151
:10091000AC01BD01CF0108950E949704A59F900DE1
:10092000B49F900DA49F800D911D11240895A29F46
:10093000B001B39FC001A39F700D811D1124911DB3
:10094000B29F700D811D1124911D0895F894FFCF61
:100950000101215468697320697320535041525436
:100960004121003A020A000000000031020A01029F
:1009700001000028020A01030B00001F020A020402
:1009800003000016020A03050400000D020A040613
:1009900005000004020A0507060000FB010A06081C
:1009A000070000F2010A0709080000EB010A080924
:1009B000094B00DF01070000000000D30107070C0E
:1009C0000B0000C701070B0D0C0000BB01070C0E4C
:1009D0000D0000AF01070D0F0E0000A301070E1060
:1009E0000F00009B01070F100100002052455455D5
:1009F000524E00205375624F7074696F6E3500203F
:100A00005375624F7074696F6E3400205375624F76
:100A10007074696F6E3300205375624F7074696F24
:100A20006E3200205375624F7074696F6E31002012
:100A30005B537562204D656E755D002053544152C5
:100A40005400204F7074696F6E3800204F707469C5
:100A50006F6E3700204F7074696F6E3600204F70D4
:100A600074696F6E3500204F7074696F6E340020AA
:100A70004F7074696F6E3300204F7074696F6E32FF
:100A800000204F7074696F6E31002D4D61696E20CA
:100A90004D656E75202D2D2D2D2D2D2D2D2D00000C
:040000030000009663
:00000001FF
