S012000073657269616C474C43442E7372656378
S11300000C9434000C9449000C9449000C9449005D
S11300100C9449000C9449000C9449000C94490038
S11300200C9449000C9449000C9449000C94490028
S11300300C9449000C9449000C9449000C94490018
S11300400C9449000C9449000C9449000C94490008
S11300500C9449000C9449000C9449000C944900F8
S11300600C9449000C94490011241FBECFEFD8E032
S1130070DEBFCDBF11E0A0E0B1E0E6E8F5E002C0EC
S113008005900D92AE30B107D9F70E944B000C9445
S1130090C1020C9400003D9A3E9A469A45983C98B9
S11300A0449A3A98429A3B98439A23E048E061E0A4
S11300B080E894E00E9459010E94CE002FEF83ED66
S11300C090E3215080409040E1F700C0000040E000
S11300D050E020E030E060E070E0F12C10E0689443
S11300E0DD24D6F86894EE24E5F8BB24B394C12C3F
S11300F00AC040E050E007C040E050E020E030E0BB
S113010002C020E030E086B1C82FC07184FD38C041
S11301102F5F3F4F21388EE338075CF3611571057B
S113012059F788B18D2588B988B18E2588B90E9480
S1130130CE00D1E00E94CE006D2F86E00E94200107
S113014080E091E00E94DC0027E02C0F01E04FE703
S11301506C2F80E00E942D019FEF23ED80E39150EE
S113016020408040E1F700C00000DF5FC85FD93065
S113017009F740E050E020E030E06B2D7C2DC3CF48
S11301804F5F5F4F41389EE359070CF4BACF40E00C
S113019050E020E030E06F2D712FB5CFCF93DF9387
S11301A00E94DC01C6ECD0E08CE788830E94DC016D
S11301B01882DF91CF910895EF92FF920F931F93CE
S11301C0CF93FC01C081CC2389F08C010F5F1F4FBA
S11301D00F2EF6ECEF2EF12CF02D0E94DC01F7012E
S11301E0C083F801C1918F01C111F7CFCF911F9145
S11301F00F91FF90EF900895FF920F931F93CF9369
S1130200DF93F82E062F0E94DC01C6ECD0E01CE739
S113021018830E94DC0188E188830E94DC01F88253
S11302200E94DC0118830E94DC0189E188830E941A
S1130230DC010883DF91CF911F910F91FF90089506
S1130240660F660F660F685090E00197982F990F1C
S1130250890F880F0E94FC000895DF92EF92FF92AD
S11302600F931F93CF93DF93D82EE62EF42E122FE5
S11302700E94DC01C6ECD0E08CE788830E94DC019C
S11302808FE088830E94DC01D8820E94DC01E8822E
S11302900E94DC01F8820E94DC0118830E94DC01C8
S11302A00883DF91CF911F910F91FF90EF90DF9022
S11302B00895CF92DF92EF92FF920F93CF93DF9343
S11302C06C01C42FD22F613039F4E0ECF0E080816E
S11302D082608083A2E001C0A1E0B0E020E034E2CB
S11302E044EF50E00E94A70220E436E040E050E0F2
S11302F00E948502E12CF12CCA01B901A7019601E3
S11303000E948502CA01B9016150710981099109EC
S11303100E94E2010E941F02272F33272093C50069
S11303206093C400D11106C0E2ECF0E080818062E9
S1130330808307C0D13029F4E2ECF0E0808180634F
S11303408083013031F4E2ECF0E08081877F8083A8
S113035007C0023029F4E2ECF0E0808188608083F9
S1130360C63031F4E2ECF0E080818260808310C01A
S1130370C73031F4E2ECF0E08081846080830FC008
S1130380C83031F4E2ECF0E080818660808307C0FD
S1130390C93029F4E2ECF0E080818E608083E1ECE6
S11303A0F0E0808188618083DF91CF910F91FF908D
S11303B0EF90DF90CF900895E0ECF0E0808185FF2E
S11303C0FDCF0895E89409C097FB3EF4909580957D
S11303D0709561957F4F8F4F9F4F9923A9F0F92F07
S11303E096E9BB279395F695879577956795B79585
S11303F0F111F8CFFAF4BB0F11F460FF1BC06F5F6B
S11304007F4F8F4F9F4F16C0882311F096E911C07C
S1130410772321F09EE8872F762F05C0662371F09D
S113042096E8862F70E060E02AF09A95660F771FB1
S1130430881FDAF7880F9695879597F908950E9493
S11304406402A8F19E57B0F1985160F039F19830E8
S113045070F5092E9927660F771F881F991F0A9434
S1130460D1F71CC0BB27993F4CF4B111B1E0B62BB6
S1130470672F782F8827985FB1F708C086957795FE
S11304806795B79508F4B1609395C1F7BB0F30F445
S113049011F460FF03C06F5F7F4F8F4F3EF4909560
S11304A08095709561957F4F8F4F9F4F0895689405
S11304B00C947F020C947E0257FD9058440F551FF4
S11304C059F05F3F71F04795880F97FB991F61F0D2
S11304D09F3F79F087950895121613061406551F49
S11304E0F2CF4695F1DF08C0161617061806991FB5
S11304F0F1CF86957105610508940895E894BB27AA
S113050066277727CB0197F90895A1E21A2EAA1B33
S1130510BB1BFD010DC0AA1FBB1FEE1FFF1FA217AF
S1130520B307E407F50720F0A21BB30BE40BF50BAC
S1130530661F771F881F991F1A9469F76095709535
S1130540809590959B01AC01BD01CF0108950E9457
S1130550B202A59F900DB49F900DA49F800D911D94
S113056011240895A29FB001B39FC001A39F700DF1
S1130570811D1124911DB29F700D811D1124911DA7
S10905800895F894FFCF7A
S11105865465737420446973706C61790000CD
S9030000FC
