:100000000C94B5000C94D2000C94D2000C94D20045
:100010000C94D2000C94D2000C94D2000C94D20018
:100020000C94D2000C94D2000C94D2000C94D20008
:100030000C94D2000C94D2000C94D2000C94D200F8
:100040000C94D2000C94D2000C94D2000C94D200E8
:100050000C94D2000C94D2000C94D2000C94D200D8
:100060000C94D2000C94D2006E616E00696E660032
:1000700000407A10F35A00A0724E18090010A5D45F
:10008000E80000E87648170000E40B54020000CABC
:100090009A3B000000E1F505000080969800000002
:1000A00040420F000000A086010000001027000061
:1000B0000000E803000000006400000000000A00E7
:1000C000000000000100000000002C76D888DC67EA
:1000D0004F0823DFC1DFAE59E1B1B796E5E3E45342
:1000E000C63AE651997696E8E6C28426EB898C9B5F
:1000F00062ED407C6FFCEFBC9C9F40F2BAA56FA5FF
:10010000F490055A2AF75C936B6CF9676DC11BFC80
:10011000E0E40D47FEF520E6B500D0ED902E03009B
:10012000943577050080841E080000204E0A0000E8
:1001300000C80C333333330F986E12831141EF8DA7
:100140002114893BE65516CFFEE6DB18D1844B38E7
:100150001BF77C1D901DA4BBE424203284725E2218
:100160008100C9F124ECA1E53D2711241FBECFEF8A
:10017000D8E0DEBFCDBF12E0A0E0B1E0ECEDFBE1E6
:1001800002C005900D92A637B107D9F722E0A6E785
:10019000B2E001C01D92AF37B207E1F70E940F0332
:1001A0000C94EC0D0C940000AF92BF92CF92DF92B2
:1001B000EF92FF920F931F93CF93DF93B82E6A01B4
:1001C000A22E982F990F980F660F660F660F892F32
:1001D000880F96FD80E0603408F060E00E94DA0647
:1001E000F60101900020E9F731971E2F1C191631F6
:1001F00008F015E1112381F0E6018FEF810FE82E61
:10020000F12C8FEFE81AF80AEC0CFD1C89910E9482
:10021000C206CE15DF05D1F7AA2049F0C5E1CB19FA
:10022000C11B29F0802F0E94C206C150D9F7DF916F
:10023000CF911F910F91FF90EF90DF90CF90BF90E3
:10024000AF9008957F928F929F92AF92BF92CF927C
:10025000DF92EF92FF920F931F93CF93DF93CDB76F
:10026000DEB765970FB6F894DEBF0FBECDBFE09145
:100270000101F0E0EE0FFF1FEE0FFF1FEE0FFF1F5B
:10028000E25FFE4F828087E0881570F00EEF080D68
:1002900080910001882321F00E94AC061092000199
:1002A0002091010180E008C081E08093000106E018
:1002B0006894882483F8F4CFE82FF0E0EE0FFF1F56
:1002C000EE0FFF1FEE0FFF1FE25FFE4F9281890FBF
:1002D000281790F7422F50E0FA01EE0FFF1FEE0FA4
:1002E000FF1FEE0FFF1FE25FFE4F9281182F191BB9
:1002F000612F70E0FB01E00FF11D4E175F070CF45A
:1003000085C01FEF180F812F90E001978417950784
:100310000CF4F6C0122F101B8A94982C910E660FC5
:10032000771F660F771F660F771FFB01E25FFE4F97
:100330004081518100E221E060E080E00E94D40031
:100340001F5F911608F457C16894882481F80F2E16
:10035000FAE0CF2EF1E0DF2EF02DCE0101967C01E8
:100360000F2EF6E0AF2EF1E0BF2EF02D77247A9419
:10037000780C80910101811322C0E12FF0E0EE0F93
:10038000FF1FEE0FFF1FEE0FFF1FE25FFE4F818189
:100390008F9380818F93BF92AF92FF92EF920E94D2
:1003A0006C0D0CE321E0A701672D80E00E94D400D2
:1003B0000F900F900F900F900F900F9021C0E12F92
:1003C000F0E0EE0FFF1FEE0FFF1FEE0FFF1FE25FCB
:1003D000FE4F81818F9380818F93DF92CF92FF9226
:1003E000EF920E946C0D00E221E0A701672D80E0F2
:1003F0000E94D4000F900F900F900F900F900F90CD
:100400001F5F8394911608F0B1CFF5C08A94810ED6
:10041000811608F4F0C0912C0F2EFAE0CF2EF1E0F7
:10042000DF2EF02DCE0101967C010F2EF6E0AF2ECF
:10043000F1E0BF2EF02D80910101811323C0E12F47
:10044000F0E0EE0FFF1FEE0FFF1FEE0FFF1FE25F4A
:10045000FE4F81818F9380818F93BF92AF92FF92E5
:10046000EF920E946C0D0CE321E0A701692D80E062
:100470000E94D40093940F900F900F900F900F90C4
:100480000F9039C0911015C0E12FF0E0EE0FFF1F63
:10049000EE0FFF1FEE0FFF1FE25FFE4F4081518105
:1004A00000E221E060E080E00E94D400992493946F
:1004B00022C0E12FF0E0EE0FFF1FEE0FFF1FEE0F47
:1004C000FF1FE25FFE4F81818F9380818F93DF92C8
:1004D000CF92FF92EF920E946C0D00E221E0A70103
:1004E000692D80E00E94D40093940F900F900F909C
:1004F0000F900F900F901F5F811608F09CCF7BC06C
:10050000121379C0660F771F660F771F660F771F6C
:10051000FB01E25FFE4F4081518100E221E060E09B
:1005200080E00E94D400F12EF818F394F3941F1584
:1005300008F461C06894EE24E1F80F2EFAE0AF2EC3
:10054000F1E0BF2EF02DCE0101966C010F2EF6E0EA
:100550008F2EF1E09F2EF02D77247A947E0C8091DF
:1005600001018F1122C0EF2DF0E0EE0FFF1FEE0F03
:10057000FF1FEE0FFF1FE25FFE4F81818F9380818F
:100580008F939F928F92DF92CF920E946C0D0CE31B
:1005900021E0A601672D80E00E94D4000F900F900B
:1005A0000F900F900F900F9021C0EF2DF0E0EE0F05
:1005B000FF1FEE0FFF1FEE0FFF1FE25FFE4F818157
:1005C0008F9380818F93BF92AF92DF92CF920E94E0
:1005D0006C0D00E221E0A601672D80E00E94D400AE
:1005E0000F900F900F900F900F900F90F394E39453
:1005F0001F1508F0B1CF65960FB6F894DEBF0FBE99
:10060000CDBFDF91CF911F910F91FF90EF90DF90C1
:10061000CF90BF90AF909F908F907F90089581E092
:10062000809301013D9A45983C98449A3A98429AA1
:100630003B98439A3998419A3898409A23E048E089
:1006400061E080E894E00E941D070E94AC062FEF55
:1006500083ED90E3215080409040E1F700C000001E
:1006600008E210E06894EE24E5F8D02FC12FFF24B3
:10067000F39480910501813079F50E942201109256
:100680000501D0930301C093040110927E0280E023
:100690000E94A10680937D02EFE8F1E03197F1F727
:1006A00000C0000080E00E94A10680937E0290912D
:1006B0007D0289130CC08091030190910401019780
:1006C0009093040180930301892B09F705C0D0930F
:1006D0000301C0930401DBCF34993FC080917802BD
:1006E000909179020196909379028093780210920A
:1006F000770210927602181619060CF0A5C08091A8
:100700007A02811125C0F0927A02F80180818E254B
:100710008083F0920501E0910101F0E0EE0FFF1FF0
:10072000EE0FFF1FEE0FFF1FE25FFE4FE581E0932C
:100730000101F0E0EE0FFF1FEE0FFF1FEE0FFF1F96
:10074000E25FFE4F0680F781E02D309709F00995B2
:1007500010927902109278027BC1329930C0809158
:1007600078029091790201969093790280937802B1
:100770001092770210927602181619060CF064C0D7
:1007800080917A02811116C0F0927A02F80180817C
:100790008E258083E0910101F0E0EE0FFF1FEE0F48
:1007A000FF1FEE0FFF1FE25FFE4F83818093010169
:1007B000F0920501109279021092780249C13399A2
:1007C0002FC08091780290917902019690937902DE
:1007D000809378021092770210927602181619060A
:1007E0009CF580917A02811116C0F0927A02F8018C
:1007F00080818E258083E0910101F0E0EE0FFF1FE4
:10080000EE0FFF1FEE0FFF1FE25FFE4F848180930C
:100810000101F0920501109279021092780218C13C
:10082000109279021092780280917602909177026C
:100830000196181619060CF007C110927702109253
:10084000760210927A0204C134993FC080917802F6
:100850009091790201969093790280937802109298
:10086000770210927602181619060CF045C0809196
:100870007A02811125C0F0927A02F80180818E25DA
:100880008083F0920501E0910101F0E0EE0FFF1F7F
:10089000EE0FFF1FEE0FFF1FE25FFE4FE581E093BB
:1008A0000101F0E0EE0FFF1FEE0FFF1FEE0FFF1F25
:1008B000E25FFE4F0680F781E02D309709F0099541
:1008C000109279021092780217C010927902109259
:1008D0007802809176029091770201961816190697
:1008E0002CF0909377028093760206C010927702E4
:1008F0001092760210927A02D0930301C093040101
:1009000010927E0280E00E94A10680937C028FE814
:1009100091E00197F1F700C0000080E00E94A1067D
:1009200080937E0290917C02891315C0809103010F
:1009300090910401019790930401809303018F2DFE
:100940000E94A10680937B02809103019091040193
:10095000892B31F0D7CFD0930301C0930401D2CFBC
:1009600080917C0290917D02891789F190917B02A0
:10097000891315C0E0910101F0E0EE0FFF1FEE0FAB
:10098000FF1FEE0FFF1FE25FFE4F83818093010187
:10099000F0920501F80180818062808314C0E091AB
:1009A0000101F0E0EE0FFF1FEE0FFF1FEE0FFF1F24
:1009B000E25FFE4F848180930101F0920501F8010E
:1009C00080818F7D808380917C0280937D028091E5
:1009D000050181114ECED0930301C0930401109202
:1009E0007E0280E00E94A10680937D028FE891E064
:1009F0000197F1F700C0000080E00E94A1068093FB
:100A00007E0290917D0289130CC080910301909128
:100A1000040101979093040180930301892B09F746
:100A200028CED0930301C0930401DBCF80917802DC
:100A300090917902019690937902809378021092B6
:100A400077021092760213CF90937702809376020A
:100A500034993BCFEBCF0E94AC0663E081E00E946B
:100A6000130780E592E00E94CB062FEF87EA91E61C
:100A7000215080409040E1F700C0000081E0809369
:100A800001010E94AC068FE39FE10197F1F700C0DE
:100A9000000008959F92AF92BF92CF92DF92EF92A3
:100AA000FF920F931F93CF93DF9300D000D01F923C
:100AB000CDB7DEB70E94AC0681E08093050188E2E5
:100AC00090E0909304018093030110927E0208E26B
:100AD00010E080E00E94A10680937D028FE891E003
:100AE0000197F1F700C0000080E00E94A10680930A
:100AF0007E0290917D0289131DC080910301909127
:100B0000040101979093040180930301892B09F755
:100B10009924939408E210E00F2EF3E6CF2EF2E032
:100B2000DF2EF02DFE0131967F016894AA24A5F8EE
:100B3000B12C05C01093040100930301CACF109398
:100B400004010093030110927E0280E00E94A1063E
:100B500080937C02FAE6FA95F1F700C080E00E94EB
:100B6000A10680937E0290917C02891315C080912A
:100B70000301909104010197909304018093030174
:100B800081E00E94A10680937B02809103019091F5
:100B90000401892B31F0D9CF109304010093030194
:100BA000D4CF80917C0290917D028917F9F09091C9
:100BB0007B0289130CC080910201882319F08150B7
:100BC00080930201F8018081806280830BC0809154
:100BD0000201843618F48F5F80930201F80180814E
:100BE0008F7D808381E08093050104C080910501A1
:100BF000882341F1809102011F928F93DF92CF925F
:100C0000FF92EF920E946C0D60E080E00E9413075B
:100C100086E692E00E94CB0661E080E00E94130726
:100C2000F70101900020E9F73197B182A082C70156
:100C30000E94CB06109205010F900F900F900F901D
:100C40000F900F90109304010093030110927E0205
:100C500080E00E94A10680937D02FAE6FA95F1F702
:100C600000C080E00E94A10680937E0290917D02E8
:100C700089130CC080910301909104010197909316
:100C8000040180930301892B19F705C01093040117
:100C900000930301DDCF34991FC0809178029091B9
:100CA00079020196909379028093780210927702EC
:100CB000109276021816190634F580917A02811185
:100CC00006C081E080937A0280930501912C1092F6
:100CD00079021092780217C010927902109278026D
:100CE00080917602909177020196181619062CF0E1
:100CF000909377028093760206C01092770210924A
:100D0000760210927A0291101ACF81E0809301014D
:100D10000E94AC068FE39FE10197F1F700C000004D
:100D20000F900F900F900F900F90DF91CF911F9128
:100D30000F91FF90EF90DF90CF90BF90AF909F907A
:100D4000089526B130E0A90102C0559547958A95CE
:100D5000E2F7CA0181700895CF93DF9380E00E948B
:100D6000A007C6ECD0E08CE7888380E00E94A00753
:100D700018828FE99FE00197F1F700C00000DF9132
:100D8000CF910895CF93C82F85E00E94A007C0930C
:100D9000C600CF910895CF93DF93EC01888188231B
:100DA00031F021960E94C20689918111FBCFDF911B
:100DB000CF910895FF920F931F93CF93DF93082F46
:100DC000162F88230CF400E0103408F010E080E0C7
:100DD0000E94A007C6ECD0E00F2EFCE7FF2EF02DFE
:100DE000F88280E00E94A00788E1888380E00E946A
:100DF000A007088380E00E94A007F88280E00E949C
:100E0000A00789E1888380E00E94A00718838FE90A
:100E10009FE00197F1F700C00000DF91CF911F9193
:100E20000F91FF900895660F660F660F982F990F28
:100E3000890F880F0E94DA060895CF92DF92EF9211
:100E4000FF920F93CF93DF936C01C42FD22F6130A9
:100E500039F4E0ECF0E0808182608083A2E001C0A0
:100E6000A1E0B0E020E034E244EF50E00E94F10B5A
:100E700020E436E040E050E00E94CF0BE12CF12C62
:100E8000CA01B901A70196010E94CF0BCA01B9019D
:100E900061507109810991090E94AF070E94EC0716
:100EA000272F33272093C5006093C400D11106C0BB
:100EB000E2ECF0E080818062808307C0D13029F4C9
:100EC000E2ECF0E0808180638083013031F4E2EC79
:100ED000F0E08081877F808307C0023029F4E2EC54
:100EE000F0E0808188608083C63031F4E2ECF0E08D
:100EF00080818260808310C0C73031F4E2ECF0E082
:100F00008081846080830FC0C83031F4E2ECF0E06F
:100F100080818660808307C0C93029F4E2ECF0E06C
:100F200080818E608083E1ECF0E080818861808345
:100F3000DF91CF910F91FF90EF90DF90CF900895C8
:100F40009C01E0ECF0E0908195FFFDCF232B31F088
:100F50008FE19EE40197F1F700C000000895E89446
:100F600009C097FB3EF490958095709561957F4FF1
:100F70008F4F9F4F9923A9F0F92F96E9BB2793959F
:100F8000F695879577956795B795F111F8CFFAF4AF
:100F9000BB0F11F460FF1BC06F5F7F4F8F4F9F4FE0
:100FA00016C0882311F096E911C0772321F09EE83E
:100FB000872F762F05C0662371F096E8862F70E0A4
:100FC00060E02AF09A95660F771F881FDAF7880F7E
:100FD0009695879597F908950E943108A8F19E5734
:100FE000B0F1985160F039F1983070F5092E9927D9
:100FF000660F771F881F991F0A94D1F71CC0BB2763
:10100000993F4CF4B111B1E0B62B672F782F8827A8
:10101000985FB1F708C0869577956795B79508F4FE
:10102000B1609395C1F7BB0F30F411F460FF03C0BA
:101030006F5F7F4F8F4F3EF49095809570956195CF
:101040007F4F8F4F9F4F089568940C944C080C94D9
:101050004B0857FD9058440F551F59F05F3F71F0F2
:101060004795880F97FB991F61F09F3F79F087950F
:101070000895121613061406551FF2CF4695F1DF98
:1010800008C0161617061806991FF1CF8695710528
:10109000610508940895E894BB2766277727CB015C
:1010A00097F90895A0E1B0E0E8E5F8E00C94FC0BB6
:1010B0007C011B016A01FC0117821682838181FF7A
:1010C00044C39E012F5F3F4F3901F7019381F10126
:1010D00093FD859193FF81911F01882309F431C30A
:1010E000853239F493FD859193FF81911F018532FB
:1010F00039F4B70190E00E94300D56016501E5CF4B
:1011000010E0512C912CFFE1F915D8F08B3279F0D9
:1011100038F4803279F08332A1F4F92DF0612EC0D9
:101120008D3261F0803369F4292D21602DC0392D75
:101130003260932E892D8460982E2AC0E92DE860B4
:1011400015C097FC2DC020ED280F2A3088F496FE9C
:1011500006C03AE0139F200D1124122F19C08AE017
:10116000589E200D1124522EE92DE0629E2E10C0B3
:101170008E3231F496FCE5C2F92DF0649F2E08C042
:101180008C3621F4292D2068922E02C0883641F435
:10119000F10193FD859193FF81911F018111B3CFDF
:1011A0009BEB980F933020F4992D9061805E07C0DF
:1011B0009BE9980F933008F066C1992D9F7E96FFAA
:1011C00016E09F73992E853619F49064992E08C005
:1011D000863621F4392F3068932E02C01111115038
:1011E00097FE07C01C3350F444244394410E27E07B
:1011F0000BC0183038F027E017E005C027E09CE36B
:10120000492E02C0212F412C560184E0A80EB11CAA
:10121000F6016081718182819381042DA3010E9476
:10122000420C6C01F981FC87F0FF02C0F3FF06C09D
:1012300091FC06C092FE06C000E205C00DE203C0AC
:101240000BE201C000E08C858C7019F001115AC2CC
:101250009BC297FE10C04C0CFC85F4FF04C08A8131
:10126000813309F44A94141474F528E0241578F5B0
:1012700088E0482E2CC096FC2AC0812F90E08C1567
:101280009D059CF03CEFC3163FEFD30674F0892D0B
:101290008068982E0AC0E2E0F0E0EC0FFD1FE10F3D
:1012A000F11D8081803319F411501111F4CF97FE94
:1012B0000EC044244394410E812F90E0C816D906F5
:1012C0002CF41C1904C04424439401C010E097FE80
:1012D00006C01C141D0434F4C601019605C085E047
:1012E00090E002C081E090E001110196112331F0FD
:1012F000212F30E02F5F3F4F820F931F252D30E0CD
:101300008217930714F4581A01C0512C892D897043
:1013100049F4552039F0B70180E290E00E94300D89
:101320005A94F7CF002329F0B701802F90E00E9454
:10133000300D93FC09C0552039F0B70180E390E0EF
:101340000E94300D5A94F7CF97FE4CC04601D7FE4D
:1013500002C0812C912CC60188199909F301E80F6C
:10136000F91FFE87ED87960124193109388B2F87E5
:10137000012F10E01195019511093FEF8316930697
:1013800029F4B7018EE290E00E94300DC814D90410
:101390004CF08F8598898815990524F4ED85FE8594
:1013A000818101C080E3F1E08F1A91082D853E858F
:1013B0002F5F3F4F3E872D87801691062CF0B70197
:1013C00090E00E94300DD9CFC814D90441F49A811D
:1013D000963320F4953319F43C8534FF81E3B7014B
:1013E00090E04EC08A81813319F09C859F7E9C8756
:1013F000B70190E00E94300D111105C094FC18C097
:1014000085E690E017C0B7018EE290E00E94300DB3
:101410001E5F82E001E0080FF301E80FF11D8081FB
:10142000B70190E00E94300D802F0113F3CFE6CF7B
:1014300085E490E0B7010E94300DD7FC06C0C114CE
:10144000D10441F4EC85E4FF05C0D194C194D108E6
:101450008DE201C08BE2B70190E00E94300D80E385
:101460002AE0C216D1042CF08F5FFAE0CF1AD1081F
:10147000F7CFB70190E00E94300DB701C601C096CA
:101480000E94300D54C1833631F0833779F08335B3
:1014900009F056C020C0560132E0A30EB11CF6017F
:1014A0008081898301E010E0630112C05601F2E0FF
:1014B000AF0EB11CF601C080D18096FE03C0612F33
:1014C00070E002C06FEF7FEFC6010E94250D8C0116
:1014D000F92DFF7714C0560122E0A20EB11CF601CF
:1014E000C080D18096FE03C0612F70E002C06FEF14
:1014F0007FEFC6010E941A0D8C01F92DF0689F2E16
:10150000F3FD1AC0852D90E008171907A8F4B7015C
:1015100080E290E00E94300D5A94F4CFF60197FCDF
:10152000859197FE81916F01B70190E00E94300D87
:1015300051105A94015011090115110579F7F7C09E
:10154000843611F0893661F5560197FE09C024E012
:10155000A20EB11CF60160817181828193810AC063
:10156000F2E0AF0EB11CF60160817181072E000C14
:10157000880B990BF92DFF769F2E97FF09C0909548
:101580008095709561957F4F8F4F9F4FF0689F2E8C
:101590002AE030E0A3010E948E0DC82EC6183FC07D
:1015A000092D853721F40F7E2AE030E01DC0097F28
:1015B0008F3691F018F4883559F0C3C0803719F090
:1015C000883711F0BEC0006104FF09C0046007C085
:1015D00094FE08C0066006C028E030E005C020E1A7
:1015E00030E002C020E132E0560107FF09C084E08C
:1015F000A80EB11CF601608171818281938108C0BF
:10160000F2E0AF0EB11CF6016081718180E090E0E4
:10161000A3010E948E0DC82EC6180F77902E96FE3D
:101620000BC0092D0E7FC11650F494FE0AC092FC27
:1016300008C0092D0E7E05C0DC2C092D03C0DC2C52
:1016400001C0D12E04FF0DC0FE01EC0DF11D808103
:10165000803311F4097E09C002FF06C0D394D394ED
:1016600004C0802F867809F0D39403FD11C000FFD9
:1016700006C01C2DD51480F4150D1D190DC0D514F0
:1016800058F4B70180E290E00E94300DD394F7CF78
:10169000D51410F45D1801C0512C04FF10C0B7011F
:1016A00080E390E00E94300D02FF17C001FD03C0EF
:1016B00088E790E002C088E590E0B7010CC0802F79
:1016C000867859F001FF02C08BE201C080E207FD7D
:1016D0008DE2B70190E00E94300DC11638F4B701D9
:1016E00080E390E00E94300D1150F7CFCA94F301CF
:1016F000EC0DF11D8081B70190E00E94300DC1100A
:10170000F5CF15C0F4E0F51560F584E0581A93FEA6
:101710001FC0011127C02C8523FF2AC008E610E056
:10172000392D3071932EF8018491811124C05520F8
:1017300009F4E4CCB70180E290E00E94300D5A94A5
:10174000F6CFF7018681978126C08FEF9FEF23C0E8
:10175000B70180E290E00E94300D5A945110F8CF0A
:10176000D8CF512CB701802F90E00E94300DD3CFFD
:101770000CE610E0D5CF91108052B70190E00E94A6
:10178000300D0F5F1F4FCFCF23E0251510F483E0FE
:10179000BDCF512CC0CF6096E2E10C94180CA1E2B1
:1017A0001A2EAA1BBB1BFD010DC0AA1FBB1FEE1FDB
:1017B000FF1FA217B307E407F50720F0A21BB30B26
:1017C000E40BF50B661F771F881F991F1A9469F7A2
:1017D00060957095809590959B01AC01BD01CF01FE
:1017E00008950E94330CA59F900DB49F900DA49F67
:1017F000800D911D112408952F923F924F925F9278
:101800006F927F928F929F92AF92BF92CF92DF9210
:10181000EF92FF920F931F93CF93DF93CDB7DEB775
:10182000CA1BDB0B0FB6F894DEBF0FBECDBF099409
:101830002A88398848885F846E847D848C849B8460
:10184000AA84B984C884DF80EE80FD800C811B816E
:10185000AA81B981CE0FD11D0FB6F894DEBF0FBE9D
:10186000CDBFED010895A29FB001B39FC001A39F1A
:10187000700D811D1124911DB29F700D811D1124C9
:10188000911D0895283008F027E03327DA01990FD9
:10189000311D87FD916000966105710539F4326054
:1018A0002E5F3D9330E32A95E1F708959F3F30F096
:1018B00080387105610509F03C5F3C5F3D939130D4
:1018C00008F08068911DDF93CF931F930F93FF92D1
:1018D000EF92192F987F9695E92F96959695E90F97
:1018E000FF27E653FF4F99273327EE24FF24A70154
:1018F000E70105900894079428F4360FE71EF81EB8
:10190000491F511D660F771F881F991F0694A1F765
:101910000590079428F4E70EF81E491F561FC11DB5
:10192000770F881F991F661F0694A1F705900794EB
:1019300028F4F80E491F561FC71FD11D880F991F85
:10194000661F771F0694A1F70590079420F4490FAE
:10195000561FC71FD81F990F661F771F881F069431
:10196000A9F784911095177041F0D695C7955795B2
:101970004795F794E7941A95C1F7E0E7F0E068948B
:101980001590159135916591959105907FE273952C
:10199000E118F10A430B560BC90BD009C0F7E10C53
:1019A000F11E431F561FC91FD01D7EF4703311F462
:1019B0008A95E6CFE894015030F0080F0AF400272A
:1019C000021708F4202F2395022F7A3328F079E3A9
:1019D0007D932A95E9F710C07D932A9589F60694A0
:1019E00097956795379517951794E118F10A430B6A
:1019F000560BC90BD00998F023957E9173957A33D5
:101A000008F070E37C932013B8F77E9170617D93AA
:101A100030F0839571E37D9370E32A95E1F711240B
:101A2000EF90FF900F911F91CF91DF91992787FD44
:101A300090950895FC010590615070400110D8F711
:101A4000809590958E0F9F1F0895FC016150704006
:101A500001900110D8F7809590958E0F9F1F0895E3
:101A60000F931F93CF93DF93FB01238121FD03C0CD
:101A70008FEF9FEF2CC022FF16C046815781248133
:101A800035814217530744F4A081B1819D012F5F36
:101A90003F4F318320838C93268137812F5F3F4FC7
:101AA0003783268314C08B01EC01FB010084F18590
:101AB000E02D0995892BE1F6D80116968D919C9120
:101AC0001797019617969C938E931697CE01DF91E8
:101AD000CF911F910F910895AEE0B0E0E2E7FDE0F5
:101AE0000C940A0C0D891E8986E08C831A83098365
:101AF0008FEF9FE79E838D83AE01475E5F4F6F89B7
:101B0000788DCE0101960E945208EF81F885E00F92
:101B1000F11F10822E96E4E00C94260CFA01AA27FD
:101B2000283051F1203181F1E8946F936E7F6E5F20
:101B30007F4F8F4F9F4FAF4FB1E03ED0B4E03CD0CE
:101B4000670F781F891F9A1FA11D680F791F8A1FB1
:101B5000911DA11D6A0F711D811D911DA11D20D018
:101B600009F468943F912AE0269F11243019305DD2
:101B70003193DEF6CF010895462F4770405D4193C3
:101B8000B3E00FD0C9F7F6CF462F4F70405D4A3310
:101B900018F0495D31FD4052419302D0A9F7EACFD8
:101BA000B4E0A6959795879577956795BA95C9F707
:101BB00000976105710508959B01AC010A2E0694FA
:101BC0005795479537952795BA95C9F7620F731FB3
:0C1BD000841F951FA01D0895F894FFCFFE
:101BDC000101322800013E257300202573003C02D0
:101BEC000A000000000034020A0102010000260273
:101BFC000A01030B00001E020A0204030000160275
:101C0C000A03050400000E020A0406050000060281
:101C1C000A0507060000FA010A0608070000F2018F
:101C2C000A0709080000EC010A0809092B05D8016C
:101C3C00070000000000CD0107070C0B0000BE01DF
:101C4C00070B0D0C4A05B301070C0E0D0000A80183
:101C5C00070D0F0E00009D01070E100F00009601DE
:101C6C00070F1001000052455455524E0053756237
:101C7C004F7074696F6E35005375624F7074696F75
:101C8C006E34005375624F7074696F6E3300526F0F
:101C9C007461727920436F756E746572005375624E
:101CAC004F7074696F6E31002D3C537562204D6519
:101CBC006E753E2D2D2D2D2D2D2D2D005354415255
:101CCC0054004F7074696F6E38004E6578744F70A5
:101CDC0074696F6E37004F7074696F6E36004F7099
:101CEC0074696F6E35004F7074696F6E34004F708D
:101CFC0074696F6E3300476F20746F205375624D9B
:101D0C00656E75004F7074696F6E31002D3C4D61BE
:101D1C00696E204D656E753E2D2D2D2D2D2D2D00B2
:101D2C0053657269616C20474C434420747269613D
:101D3C006C7300256400436F756E74202830202D61
:061D4C00203130302900B7
:0400000300000A5699
:00000001FF
