S012000073657269616C474C43442E7372656378
S11300000C9434000C9451000C9451000C94510045
S11300100C9451000C9451000C9451000C94510018
S11300200C9451000C9451000C9451000C94510008
S11300300C9451000C9451000C9451000C945100F8
S11300400C9451000C9451000C9451000C945100E8
S11300500C9451000C9451000C9451000C945100D8
S11300600C9451000C94510011241FBECFEFD8E022
S1130070DEBFCDBF12E0A0E0B1E0E4E5FFE002C0E6
S113008005900D92A038B107D9F722E0A0E8B2E0BC
S113009001C01D92A638B207E1F70E94F8010C9442
S11300A0A8070C9400000E94EF0263E083E00E9422
S11300B0500382E091E00E9408032FEF87EA91E663
S11300C0215080409040E1F700C0000081E080931F
S11300D001010E94EF022FEF87EA91E62150804050
S11300E09040E1F700C000000895AF92BF92CF9214
S11300F0DF92EF92FF920F931F93CF93DF93B82E6B
S11301006A01A22E982F990F980F660F660F660F3B
S1130110892F880F96FD80E0603408F060E00E942B
S11301201703F60101900020E9F731971E2F1C19DF
S1130130163108F015E1112381F0E6018FEF810FEC
S1130140E82EF12C8FEFE81AF80AEC0CFD1C8991CB
S11301500E94FF02CE15DF05D1F7AA2049F0C5E1C0
S1130160CB19C11B29F0802F0E94FF02C150D9F77F
S1130170DF91CF911F910F91FF90EF90DF90CF907F
S1130180BF90AF900895FF920F931F93CF93DF9387
S1130190E0910101F0E0EE0FFF1FEE0FFF1FEE0FE5
S11301A0FF1FED5EFE4F1281183070F4DEEFD10FA9
S11301B080910001882321F00E94EF021092000137
S11301C02091010180E006C081E080930001D6E027
S11301D018E0F6CFE82FF0E0EE0FFF1FEE0FFF1F41
S11301E0EE0FFF1FED5EFE4F9281890F281790F7E7
S11301F0422F50E0FA01EE0FFF1FEE0FFF1FEE0F2C
S1130200FF1FED5EFE4F9281F82EF91AEF2DF0E0FC
S1130210BF016D0F711D461757070CF457C0CFEF80
S1130220C80F8C2F90E00197841795070CF48BC0AE
S1130230C22FCD1B1150F12EFC0EEE0FFF1FEE0F3F
S1130240FF1FEE0FFF1FED5EFE4F4081518100E264
S113025021E060E080E00E947500CF5FFC1670F141
S113026012E06FEF610F809101018C1312C0EC2F2B
S1130270F0E0EE0FFF1FEE0FFF1FEE0FFF1FED5E0E
S1130280FE4F408151810CE321E080E00E94750023
S113029011C0EC2FF0E0EE0FFF1FEE0FFF1FEE0F6B
S11302A0FF1FED5EFE4F4081518100E221E080E0BE
S11302B00E947500CF5F1F5FFC1698F66D2F80E0DB
S11302C00E9450038EE30E94FF028CC011501F0D48
S11302D01F1578F1CF2DD1E06FEF6D0F80910101E3
S11302E08C1312C0EC2FF0E0EE0FFF1FEE0FFF1F78
S11302F0EE0FFF1FED5EFE4F408151810CE321E0C4
S113030080E00E94750011C0EC2FF0E0EE0FFF1F9B
S1130310EE0FFF1FEE0FFF1FED5EFE4F4081518178
S113032000E221E080E00E947500CF5FDF5F1C17D0
S113033098F6609101016F1980E00E9450038EE3EA
S11303400E94FF024FC0C2134DC0EE0FFF1FEE0FFD
S1130350FF1FEE0FFF1FED5EFE4F4081518100E253
S113036021E060E080E00E947500DC2FD11BDE5F9D
S1130370CD1780F16894FF24F1F86FEF6F0D809131
S113038001018D1312C0ED2FF0E0EE0FFF1FEE0FF1
S1130390FF1FEE0FFF1FED5EFE4F408151810CE306
S11303A021E080E00E94750011C0ED2FF0E0EE0F17
S11303B0FF1FEE0FFF1FEE0FFF1FED5EFE4F40818C
S11303C0518100E221E080E00E947500DF5FF39438
S11303D0CD1798F66FEF610F80E00E9450038EE313
S11303E00E94FF02DF91CF911F910F91FF9008951A
S11303F08FE492E09F938F938BE592E09F938F938A
S11304000E94CA0489E692E09F938F9382E792E068
S11304109F938F930E94CA0481E0809301013D9AC7
S113042045983C98449A3A98429A3B98439A23E0D8
S113043048E061E080E894E00E945A030E94EF02E1
S11304402FEF87EA91E6215080409040E1F700C009
S113045000000E9453008DB79EB708960FB6F8941B
S11304609EBF0FBE8DBF81E0E12CF12CC0E0D0E037
S113047000E010E0912C712C812C6894AA24A5F83A
S1130480BB24B394CC24C394D12C1AC0E12CF12CFA
S113049017C0E12CF12CC0E0D0E012C0E12CF12C0B
S11304A00FC0E12CF12CC0E0D0E00AC0E12CF12C0B
S11304B007C0E12CF12CC0E0D0E002C0C0E0D0E0E5
S11304C0813019F40E94C300892D349931C02196DA
S11304D0C230D105DCF201151105D9F688B18A259F
S11304E088B9E0910101F0E0EE0FFF1FEE0FFF1F4E
S11304F0EE0FFF1FED5EFE4F0680F781E02D309773
S113050009F00995E0910101F0E0EE0FFF1FEE0FF5
S1130510FF1FEE0FFF1FED5EFE4F858180930101EB
S11305208B2DE12CF12CC0E0D0E00C2D1D2DC8CF7B
S1130530329922C02196C230D1050CF4AFCF0115F7
S1130540110509F0AECF88B18A2588B9E09101017F
S1130550F0E0EE0FFF1FEE0FFF1FEE0FFF1FED5E2B
S1130560FE4F8381809301018B2DE12CF12CC0E09F
S1130570D0E00C2D1D2DA4CF339922C02196C2307A
S1130580D1050CF493CF0115110509F092CF88B170
S11305908A2588B9E0910101F0E0EE0FFF1FEE0F0C
S11305A0FF1FEE0FFF1FED5EFE4F8481809301015C
S11305B08B2DE12CF12CC0E0D0E00C2D1D2D80CF33
S11305C09FEFE91AF90A22E0E216F1040CF476CF5F
S11305D0E12CF12CC0E0D0E0072D182D71CFCF9382
S11305E0DF9380E00E94DD03C6ECD0E08CE78883D3
S11305F080E00E94DD031882DF91CF910895CF93AC
S1130600C82F81E00E94DD03C093C600CF910895F6
S1130610CF93DF93EC018881882331F021960E94E7
S1130620FF0289918111FBCFDF91CF910895FF9251
S11306300F931F93CF93DF93082F162F88230CF467
S113064000E0103408F010E080E00E94DD03C6EC06
S1130650D0E00F2EFCE7FF2EF02DF88280E00E9400
S1130660DD0388E1888380E00E94DD03088380E065
S11306700E94DD03F88280E00E94DD0389E1888323
S113068080E00E94DD0318838FE19EE40197F1F777
S113069000C00000DF91CF911F910F91FF9008954A
S11306A0660F660F660F982F990F890F880F0E94A7
S11306B017030895CF92DF92EF92FF920F93CF9397
S11306C0DF936C01C42FD22F613039F4E0ECF0E0F9
S11306D0808182608083A2E001C0A1E0B0E020E0DC
S11306E034E244EF50E00E94B00420E436E040E0FD
S11306F050E00E948E04E12CF12CCA01B901A7013B
S113070096010E948E04CA01B901615071098109E0
S113071091090E94EB030E942804272F332720937A
S1130720C5006093C400D11106C0E2ECF0E0808102
S11307308062808307C0D13029F4E2ECF0E080814C
S113074080638083013031F4E2ECF0E08081877FC4
S1130750808307C0023029F4E2ECF0E080818860F5
S11307608083C63031F4E2ECF0E0808182608083E3
S113077010C0C73031F4E2ECF0E080818460808303
S11307800FC0C83031F4E2ECF0E0808186608083F1
S113079007C0C93029F4E2ECF0E080818E608083E8
S11307A0E1ECF0E0808188618083DF91CF910F914B
S11307B0FF90EF90DF90CF900895E0ECF0E090810F
S11307C095FFFDCF882331F08FE19EE40197F1F787
S11307D000C000000895E89409C097FB3EF490958A
S11307E08095709561957F4F8F4F9F4F9923A9F006
S11307F0F92F96E9BB279395F69587957795679595
S1130800B795F111F8CFFAF4BB0F11F460FF1BC0D8
S11308106F5F7F4F8F4F9F4F16C0882311F096E96B
S113082011C0772321F09EE8872F762F05C0662319
S113083071F096E8862F70E060E02AF09A95660FD2
S1130840771F881FDAF7880F9695879597F908958B
S11308500E946D04A8F19E57B0F1985160F039F1EF
S1130860983070F5092E9927660F771F881F991FF6
S11308700A94D1F71CC0BB27993F4CF4B111B1E0E5
S1130880B62B672F782F8827985FB1F708C0869515
S113089077956795B79508F4B1609395C1F7BB0F49
S11308A030F411F460FF03C06F5F7F4F8F4F3EF44D
S11308B090958095709561957F4F8F4F9F4F0895C8
S11308C068940C9488040C94870457FD9058440F42
S11308D0551F59F05F3F71F04795880F97FB991F9B
S11308E061F09F3F79F08795089512161306140658
S11308F0551FF2CF4695F1DF08C0161617061806E5
S1130900991FF1CF86957105610508940895E894BF
S1130910BB2766277727CB0197F90895A1E21A2E02
S1130920AA1BBB1BFD010DC0AA1FBB1FEE1FFF1F8F
S1130930A217B307E407F50720F0A21BB30BE40BDF
S1130940F50B661F771F881F991F1A9469F7609526
S11309507095809590959B01AC01BD01CF010895E0
S11309600E94BB04A59F900DB49F900DA49F800D81
S1130970911D11240895A29FB001B39FC001A39FAC
S1130980700D811D1124911DB29F700D811D1124C4
S1130990911D0895A0E0B0E0E0EDF4E00C9481072F
S11309A0AE014B5F5F4FFA0161917191AF0180918C
S11309B08202909183020E94E004E2E00C949D077D
S11309C0ABE0B0E0E6EEF4E00C9471076C017B015F
S11309D08A01FC0117821682838181FFCCC1CE017A
S11309E001963C01F6019381F70193FD859193FFF4
S11309F081917F01882309F4BAC1853239F493FDCA
S1130A00859193FF81917F01853229F4B60190E0AD
S1130A100E94D706E7CF912C212C312CFFE1F3154E
S1130A20D8F08B3279F038F4803279F08332A1F443
S1130A30232D20611DC08D3261F0803369F4232D94
S1130A40216016C0832D8260382EE32DE4603E2E93
S1130A502AC0F32DF8601DC037FC2DC020ED280FEF
S1130A602A3040F08E32B9F436FC81C1232D206443
S1130A70322E19C036FE06C08AE0989E200D11243D
S1130A80922E11C0EAE02E9E200D1124222EF32D69
S1130A90F0623F2E08C08C3621F4832D8068382EF6
S1130AA002C0883641F4F70193FD859193FF81914B
S1130AB07F018111B3CF982F9F7D9554933028F4F3
S1130AC00C5F1F4F9FE399830DC0833631F083374A
S1130AD071F0833509F059C021C0F8018081898300
S1130AE00E5F1F4F88248394912C530113C0280157
S1130AF0F2E04F0E511CF801A080B18036FE03C015
S1130B00692D70E002C06FEF7FEFC5010E94CC0633
S1130B104C018201F32DFF773F2E16C0280122E0FD
S1130B20420E511CF801A080B18036FE03C0692D2D
S1130B3070E002C06FEF7FEFC5010E94C1064C0157
S1130B40F32DF0683F2E820133FC1BC0822D90E010
S1130B5088169906B0F4B60180E290E00E94D706A8
S1130B602A94F4CFF50137FC859137FE81915F011A
S1130B70B60190E00E94D70621102A9421E0821A3F
S1130B8091088114910471F7E8C0843611F0893614
S1130B9041F5F80137FE07C060817181828193813C
S1130BA00C5F1F4F08C060817181072E000C880BF9
S1130BB0990B0E5F1F4FF32DFF763F2E97FF09C051
S1130BC090958095709561957F4F8F4F9F4FF068FA
S1130BD03F2E2AE030E0A3010E941307882E8618D6
S1130BE045C0853731F4232D2F7EB22E2AE030E024
S1130BF025C0932D997FB92E8F36C1F018F488350E
S1130C0079F0B5C0803719F0883721F0B0C0E92FEA
S1130C10E061BE2EB4FE0DC0FB2DF460BF2E09C0F2
S1130C2034FE0AC0292F2660B22E06C028E030E028
S1130C3005C020E130E002C020E132E0F801B7FE57
S1130C4007C060817181828193810C5F1F4F06C050
S1130C506081718180E090E00E5F1F4FA3010E94CC
S1130C601307882E8618FB2DFF773F2E36FE0DC006
S1130C70232D2E7FA22E891458F434FE0BC032FC8F
S1130C8009C0832D8E7EA82E05C0B82CA32C03C0CA
S1130C90B82C01C0B92CA4FE0FC0FE01E80DF11D53
S1130CA08081803321F49A2D997EA92E09C0A2FE59
S1130CB006C0B394B39404C08A2D867809F0B39423
S1130CC0A3FC11C0A0FE06C0B21488F4280C922C18
S1130CD09B180EC0B21460F4B60180E290E00E944A
S1130CE0D706B394F7CFB21418F42B1802C0982C7B
S1130CF0212CA4FE10C0B60180E390E00E94D70628
S1130D00A2FE17C0A1FC03C088E790E002C088E5FA
S1130D1090E0B6010CC08A2D867859F0A1FE02C07D
S1130D208BE201C080E2A7FC8DE2B60190E00E9454
S1130D30D706891438F4B60180E390E00E94D70600
S1130D409A94F7CF8A94F301E80DF11D8081B601DE
S1130D5090E00E94D7068110F5CF222009F442CEFC
S1130D60B60180E290E00E94D7062A94F6CFF601FD
S1130D708681978102C08FEF9FEF2B96E2E10C945E
S1130D808D07FC010590615070400110D8F78095E3
S1130D9090958E0F9F1F0895FC0161507040019043
S1130DA00110D8F7809590958E0F9F1F08950F938B
S1130DB01F93CF93DF93FB01238121FD03C08FEFAA
S1130DC09FEF2CC022FF16C04681578124813581B4
S1130DD04217530744F4A081B1819D012F5F3F4F17
S1130DE0318320838C93268137812F5F3F4F378354
S1130DF0268314C08B01EC01FB010084F185E02DF6
S1130E000995892BE1F6D80116968D919C91179737
S1130E10019617969C938E931697CE01DF91CF91EE
S1130E201F910F910895FA01AA27283051F120311A
S1130E3081F1E8946F936E7F6E5F7F4F8F4F9F4F6A
S1130E40AF4FB1E03ED0B4E03CD0670F781F891FAC
S1130E509A1FA11D680F791F8A1F911DA11D6A0F7A
S1130E60711D811D911DA11D20D009F468943F912D
S1130E702AE0269F11243019305D3193DEF6CF012C
S1130E800895462F4770405D4193B3E00FD0C9F7F2
S1130E90F6CF462F4F70405D4A3318F0495D31FD5F
S1130EA04052419302D0A9F7EACFB4E0A6959795B2
S1130EB0879577956795BA95C9F700976105710588
S1130EC008959B01AC010A2E0694579547953795D2
S1130ED02795BA95C9F7620F731F841F951FA01D2C
S1130EE008952F923F924F925F926F927F928F92CA
S1130EF09F92AF92BF92CF92DF92EF92FF920F93A5
S1130F001F93CF93DF93CDB7DEB7CA1BDB0B0FB6AE
S1130F10F894DEBF0FBECDBF09942A88398848886B
S1130F205F846E847D848C849B84AA84B984C88401
S1130F30DF80EE80FD800C811B81AA81B981CE0FF8
S1130F40D11D0FB6F894DEBF0FBECDBFED010895DD
S1070F50F894FFCF3F
S1130F540101215468697320697320535041525428
S1130F644121003A020A000000000031020A010291
S1130F7401000028020A01030B00001F020A0204F4
S1130F8403000016020A03050400000D020A040605
S1130F9405000004020A0507060000FB010A06080E
S1130FA4070000F2010A0709080000EB010A080916
S1130FB4095300DF01070000000000D30107070CF8
S1130FC40B0000C701070B0D0C0000BB01070C0E3E
S1130FD40D0000AF01070D0F0E0000A301070E1052
S1130FE40F00009B01070F100100002052455455C7
S1130FF4524E00205375624F7074696F6E35002031
S11310045375624F7074696F6E3400205375624F68
S11310147074696F6E3300205375624F7074696F16
S11310246E3200205375624F7074696F6E31002004
S11310345B537562204D656E755D002053544152B7
S11310445400204F7074696F6E3800204F707469B7
S11310546F6E3700204F7074696F6E3600204F70C6
S113106474696F6E3500204F7074696F6E3400209C
S11310744F7074696F6E3300204F7074696F6E32F1
S113108400204F7074696F6E31002D4D61696E20BC
S11310944D656E75202D2D2D2D2D2D2D2D2D004AB4
S11310A4756C2020362032303139005F5F4441545E
S11310B4455F5F3A2025730A0032323A30303A34BD
S11310C430005F5F54494D455F5F3A2025730A0041
S90300A656
